{
  "_format": "hh-sol-artifact-1",
  "contractName": "BasicDutchAuction",
  "sourceName": "contracts/BasicDutchAuction.sol",
  "abi": [
    {
      "inputs": [
        {
          "internalType": "uint256",
          "name": "basePrice",
          "type": "uint256"
        },
        {
          "internalType": "uint256",
          "name": "tenure",
          "type": "uint256"
        },
        {
          "internalType": "uint256",
          "name": "decrement",
          "type": "uint256"
        }
      ],
      "stateMutability": "nonpayable",
      "type": "constructor"
    },
    {
      "inputs": [],
      "name": "auctionStatusOpen",
      "outputs": [
        {
          "internalType": "bool",
          "name": "",
          "type": "bool"
        }
      ],
      "stateMutability": "view",
      "type": "function"
    },
    {
      "inputs": [],
      "name": "bid",
      "outputs": [
        {
          "internalType": "address",
          "name": "",
          "type": "address"
        }
      ],
      "stateMutability": "payable",
      "type": "function"
    },
    {
      "inputs": [],
      "name": "buyer",
      "outputs": [
        {
          "internalType": "address",
          "name": "",
          "type": "address"
        }
      ],
      "stateMutability": "view",
      "type": "function"
    },
    {
      "inputs": [],
      "name": "currentPrice",
      "outputs": [
        {
          "internalType": "uint256",
          "name": "",
          "type": "uint256"
        }
      ],
      "stateMutability": "view",
      "type": "function"
    },
    {
      "inputs": [],
      "name": "seller",
      "outputs": [
        {
          "internalType": "address",
          "name": "",
          "type": "address"
        }
      ],
      "stateMutability": "view",
      "type": "function"
    }
  ],
  "bytecode": "0x60806040526000600360006101000a81548173ffffffffffffffffffffffffffffffffffffffff021916908373ffffffffffffffffffffffffffffffffffffffff1602179055503480156200005357600080fd5b5060405162000cef38038062000cef8339818101604052810190620000799190620001c4565b33600560006101000a81548173ffffffffffffffffffffffffffffffffffffffff021916908373ffffffffffffffffffffffffffffffffffffffff160217905550600560009054906101000a900473ffffffffffffffffffffffffffffffffffffffff16600460006101000a81548173ffffffffffffffffffffffffffffffffffffffff021916908373ffffffffffffffffffffffffffffffffffffffff160217905550436006819055506001600860006101000a81548160ff0219169083151502179055508260008190555081600181905550806002819055506002546001546200016691906200024f565b6000546200017591906200029a565b600781905550505050620002d5565b600080fd5b6000819050919050565b6200019e8162000189565b8114620001aa57600080fd5b50565b600081519050620001be8162000193565b92915050565b600080600060608486031215620001e057620001df62000184565b5b6000620001f086828701620001ad565b93505060206200020386828701620001ad565b92505060406200021686828701620001ad565b9150509250925092565b7f4e487b7100000000000000000000000000000000000000000000000000000000600052601160045260246000fd5b60006200025c8262000189565b9150620002698362000189565b9250828202620002798162000189565b9150828204841483151762000293576200029262000220565b5b5092915050565b6000620002a78262000189565b9150620002b48362000189565b9250828201905080821115620002cf57620002ce62000220565b5b92915050565b610a0a80620002e56000396000f3fe60806040526004361061004a5760003560e01c806308551a531461004f5780630b48ab8f1461007a5780631998aeef146100a55780637150d8ae146100c35780639d1b464a146100ee575b600080fd5b34801561005b57600080fd5b50610064610119565b60405161007191906105cb565b60405180910390f35b34801561008657600080fd5b5061008f61013f565b60405161009c9190610601565b60405180910390f35b6100ad610152565b6040516100ba91906105cb565b60405180910390f35b3480156100cf57600080fd5b506100d86104a4565b6040516100e591906105cb565b60405180910390f35b3480156100fa57600080fd5b506101036104ca565b6040516101109190610635565b60405180910390f35b600460009054906101000a900473ffffffffffffffffffffffffffffffffffffffff1681565b600860009054906101000a900460ff1681565b600061015c6104f3565b61019b576040517f08c379a0000000000000000000000000000000000000000000000000000000008152600401610192906106ad565b60405180910390fd5b600360009054906101000a900473ffffffffffffffffffffffffffffffffffffffff1673ffffffffffffffffffffffffffffffffffffffff163373ffffffffffffffffffffffffffffffffffffffff160361022b576040517f08c379a000000000000000000000000000000000000000000000000000000000815260040161022290610719565b60405180910390fd5b600073ffffffffffffffffffffffffffffffffffffffff16600360009054906101000a900473ffffffffffffffffffffffffffffffffffffffff1673ffffffffffffffffffffffffffffffffffffffff16146102bc576040517f08c379a00000000000000000000000000000000000000000000000000000000081526004016102b390610785565b60405180910390fd5b600560009054906101000a900473ffffffffffffffffffffffffffffffffffffffff1673ffffffffffffffffffffffffffffffffffffffff163373ffffffffffffffffffffffffffffffffffffffff160361034c576040517f08c379a0000000000000000000000000000000000000000000000000000000008152600401610343906107f1565b60405180910390fd5b6103546104ca565b341015610396576040517f08c379a000000000000000000000000000000000000000000000000000000000815260040161038d9061085d565b60405180910390fd5b6000600560009054906101000a900473ffffffffffffffffffffffffffffffffffffffff1673ffffffffffffffffffffffffffffffffffffffff166103d96104ca565b6040516103e5906108ae565b60006040518083038185875af1925050503d8060008114610422576040519150601f19603f3d011682016040523d82523d6000602084013e610427565b606091505b505090506001151581151514610472576040517f08c379a00000000000000000000000000000000000000000000000000000000081526004016104699061090f565b60405180910390fd5b61047b33610507565b600360009054906101000a900473ffffffffffffffffffffffffffffffffffffffff1691505090565b600360009054906101000a900473ffffffffffffffffffffffffffffffffffffffff1681565b60006002546104d7610566565b6104e1919061095e565b6007546104ee91906109a0565b905090565b6000600154610500610566565b1115905090565b80600360006101000a81548173ffffffffffffffffffffffffffffffffffffffff021916908373ffffffffffffffffffffffffffffffffffffffff1602179055506000600860006101000a81548160ff02191690831515021790555050565b6000600654610573610582565b61057d91906109a0565b905090565b600043905090565b600073ffffffffffffffffffffffffffffffffffffffff82169050919050565b60006105b58261058a565b9050919050565b6105c5816105aa565b82525050565b60006020820190506105e060008301846105bc565b92915050565b60008115159050919050565b6105fb816105e6565b82525050565b600060208201905061061660008301846105f2565b92915050565b6000819050919050565b61062f8161061c565b82525050565b600060208201905061064a6000830184610626565b92915050565b600082825260208201905092915050565b7f41756374696f6e20697320636c6f736564000000000000000000000000000000600082015250565b6000610697601183610650565b91506106a282610661565b602082019050919050565b600060208201905081810360008301526106c68161068a565b9050919050565b7f596f7520616c726561647920626f7567687420746869732070726f6475637400600082015250565b6000610703601f83610650565b915061070e826106cd565b602082019050919050565b60006020820190508181036000830152610732816106f6565b9050919050565b7f50726f6475637420616c726561647920736f6c64000000000000000000000000600082015250565b600061076f601483610650565b915061077a82610739565b602082019050919050565b6000602082019050818103600083015261079e81610762565b9050919050565b7f4f776e65722063616e2774204269640000000000000000000000000000000000600082015250565b60006107db600f83610650565b91506107e6826107a5565b602082019050919050565b6000602082019050818103600083015261080a816107ce565b9050919050565b7f57454920697320696e73756666696369656e7400000000000000000000000000600082015250565b6000610847601383610650565b915061085282610811565b602082019050919050565b600060208201905081810360008301526108768161083a565b9050919050565b600081905092915050565b50565b600061089860008361087d565b91506108a382610888565b600082019050919050565b60006108b98261088b565b9150819050919050565b7f6661696c656420746f2073656e64000000000000000000000000000000000000600082015250565b60006108f9600e83610650565b9150610904826108c3565b602082019050919050565b60006020820190508181036000830152610928816108ec565b9050919050565b7f4e487b7100000000000000000000000000000000000000000000000000000000600052601160045260246000fd5b60006109698261061c565b91506109748361061c565b92508282026109828161061c565b915082820484148315176109995761099861092f565b5b5092915050565b60006109ab8261061c565b91506109b68361061c565b92508282039050818111156109ce576109cd61092f565b5b9291505056fea2646970667358221220ea5b81f697818d1809eabc1ce064eaeee388c65d7ab14debc9c6c91003099b6364736f6c63430008120033",
  "linkReferences": {},
  "deployedLinkReferences": {}
}